{
  "_format": "hh-sol-artifact-1",
  "contractName": "Lottery",
  "sourceName": "contracts/Lottery.sol",
  "abi": [
    {
      "anonymous": false,
      "inputs": [
        {
          "indexed": false,
          "internalType": "address[]",
          "name": "winners",
          "type": "address[]"
        },
        {
          "indexed": false,
          "internalType": "uint256[]",
          "name": "prizes",
          "type": "uint256[]"
        }
      ],
      "name": "LotteryDrawn",
      "type": "event"
    },
    {
      "anonymous": false,
      "inputs": [
        {
          "indexed": true,
          "internalType": "address",
          "name": "participant",
          "type": "address"
        }
      ],
      "name": "LotteryEntered",
      "type": "event"
    },
    {
      "inputs": [],
      "name": "enterLottery",
      "outputs": [],
      "stateMutability": "payable",
      "type": "function"
    },
    {
      "inputs": [],
      "name": "entryFee",
      "outputs": [
        {
          "internalType": "uint256",
          "name": "",
          "type": "uint256"
        }
      ],
      "stateMutability": "view",
      "type": "function"
    },
    {
      "inputs": [
        {
          "internalType": "uint256",
          "name": "",
          "type": "uint256"
        }
      ],
      "name": "participants",
      "outputs": [
        {
          "internalType": "address",
          "name": "",
          "type": "address"
        }
      ],
      "stateMutability": "view",
      "type": "function"
    },
    {
      "inputs": [
        {
          "internalType": "uint256",
          "name": "",
          "type": "uint256"
        }
      ],
      "name": "winners",
      "outputs": [
        {
          "internalType": "address",
          "name": "",
          "type": "address"
        }
      ],
      "stateMutability": "view",
      "type": "function"
    }
  ],
  "bytecode": "0x60806040526501d1a94a200060025534801561001a57600080fd5b50610dfa8061002a6000396000f3fe60806040526004361061003f5760003560e01c8063072ea61c1461004457806335c1d3491461006f578063a2fb1175146100ac578063c1af5785146100e9575b600080fd5b34801561005057600080fd5b506100596100f3565b6040516100669190610740565b60405180910390f35b34801561007b57600080fd5b506100966004803603810190610091919061078c565b6100f9565b6040516100a391906107fa565b60405180910390f35b3480156100b857600080fd5b506100d360048036038101906100ce919061078c565b610138565b6040516100e091906107fa565b60405180910390f35b6100f1610177565b005b60025481565b6000818154811061010957600080fd5b906000526020600020016000915054906101000a900473ffffffffffffffffffffffffffffffffffffffff1681565b6001818154811061014857600080fd5b906000526020600020016000915054906101000a900473ffffffffffffffffffffffffffffffffffffffff1681565b60025434146101bb576040517f08c379a00000000000000000000000000000000000000000000000000000000081526004016101b290610872565b60405180910390fd5b600460008054905010610203576040517f08c379a00000000000000000000000000000000000000000000000000000000081526004016101fa906108de565b60405180910390fd5b6000339080600181540180825580915050600190039060005260206000200160009091909190916101000a81548173ffffffffffffffffffffffffffffffffffffffff021916908373ffffffffffffffffffffffffffffffffffffffff1602179055503373ffffffffffffffffffffffffffffffffffffffff167f4c72b57c1ca715219cf2c7be9edc8a3ea19dfb9a76fb7a05e2a8062a027ee97060405160405180910390a26004600080549050036102bf576102be6102c1565b5b565b600460008054905014610309576040517f08c379a00000000000000000000000000000000000000000000000000000000081526004016103009061094a565b60405180910390fd5b60005b60038110156103e857600080805490506103246105bd565b61032e9190610999565b9050600160008281548110610346576103456109ca565b5b9060005260206000200160009054906101000a900473ffffffffffffffffffffffffffffffffffffffff169080600181540180825580915050600190039060005260206000200160009091909190916101000a81548173ffffffffffffffffffffffffffffffffffffffff021916908373ffffffffffffffffffffffffffffffffffffffff1602179055506103da816105f3565b50808060010191505061030c565b506000600367ffffffffffffffff811115610406576104056109f9565b5b6040519080825280602002602001820160405280156104345781602001602082028036833780820191505090505b5090506509184e72a00081600081518110610452576104516109ca565b5b6020026020010181815250506502ba7def300081600181518110610479576104786109ca565b5b6020026020010181815250506501d1a94a2000816002815181106104a05761049f6109ca565b5b60200260200101818152505060005b600381101561056457600181815481106104cc576104cb6109ca565b5b9060005260206000200160009054906101000a900473ffffffffffffffffffffffffffffffffffffffff1673ffffffffffffffffffffffffffffffffffffffff166108fc838381518110610523576105226109ca565b5b60200260200101519081150290604051600060405180830381858888f19350505050158015610556573d6000803e3d6000fd5b5080806001019150506104af565b507fb3e7eaa61fcc18fdb52d04dc78161bac07f0109b177cec8d164d23d44c017d90600182604051610597929190610c0a565b60405180910390a16000806105ac91906106e9565b600160006105ba91906106e9565b50565b6000444260006040516020016105d593929190610cf9565b6040516020818303038152906040528051906020012060001c905090565b600060016000805490506106079190610d61565b81548110610618576106176109ca565b5b9060005260206000200160009054906101000a900473ffffffffffffffffffffffffffffffffffffffff1660008281548110610657576106566109ca565b5b9060005260206000200160006101000a81548173ffffffffffffffffffffffffffffffffffffffff021916908373ffffffffffffffffffffffffffffffffffffffff16021790555060008054806106b1576106b0610d95565b5b6001900381819060005260206000200160006101000a81549073ffffffffffffffffffffffffffffffffffffffff0219169055905550565b5080546000825590600052602060002090810190610707919061070a565b50565b5b8082111561072357600081600090555060010161070b565b5090565b6000819050919050565b61073a81610727565b82525050565b60006020820190506107556000830184610731565b92915050565b600080fd5b61076981610727565b811461077457600080fd5b50565b60008135905061078681610760565b92915050565b6000602082840312156107a2576107a161075b565b5b60006107b084828501610777565b91505092915050565b600073ffffffffffffffffffffffffffffffffffffffff82169050919050565b60006107e4826107b9565b9050919050565b6107f4816107d9565b82525050565b600060208201905061080f60008301846107eb565b92915050565b600082825260208201905092915050565b7f496e636f727265637420656e7472792066656500000000000000000000000000600082015250565b600061085c601383610815565b915061086782610826565b602082019050919050565b6000602082019050818103600083015261088b8161084f565b9050919050565b7f4c6f74746572792069732066756c6c0000000000000000000000000000000000600082015250565b60006108c8600f83610815565b91506108d382610892565b602082019050919050565b600060208201905081810360008301526108f7816108bb565b9050919050565b7f4e6f7420656e6f756768207061727469636970616e7473000000000000000000600082015250565b6000610934601783610815565b915061093f826108fe565b602082019050919050565b6000602082019050818103600083015261096381610927565b9050919050565b7f4e487b7100000000000000000000000000000000000000000000000000000000600052601260045260246000fd5b60006109a482610727565b91506109af83610727565b9250826109bf576109be61096a565b5b828206905092915050565b7f4e487b7100000000000000000000000000000000000000000000000000000000600052603260045260246000fd5b7f4e487b7100000000000000000000000000000000000000000000000000000000600052604160045260246000fd5b600081549050919050565b600082825260208201905092915050565b60008190508160005260206000209050919050565b610a62816107d9565b82525050565b6000610a748383610a59565b60208301905092915050565b60008160001c9050919050565b600073ffffffffffffffffffffffffffffffffffffffff82169050919050565b6000610ac0610abb83610a80565b610a8d565b9050919050565b6000610ad38254610aad565b9050919050565b6000600182019050919050565b6000610af282610a28565b610afc8185610a33565b9350610b0783610a44565b8060005b83811015610b3f57610b1c82610ac7565b610b268882610a68565b9750610b3183610ada565b925050600181019050610b0b565b5085935050505092915050565b600081519050919050565b600082825260208201905092915050565b6000819050602082019050919050565b610b8181610727565b82525050565b6000610b938383610b78565b60208301905092915050565b6000602082019050919050565b6000610bb782610b4c565b610bc18185610b57565b9350610bcc83610b68565b8060005b83811015610bfd578151610be48882610b87565b9750610bef83610b9f565b925050600181019050610bd0565b5085935050505092915050565b60006040820190508181036000830152610c248185610ae7565b90508181036020830152610c388184610bac565b90509392505050565b6000819050919050565b610c5c610c5782610727565b610c41565b82525050565b600081905092915050565b610c76816107d9565b82525050565b6000610c888383610c6d565b60208301905092915050565b6000610c9f82610a28565b610ca98185610c62565b9350610cb483610a44565b8060005b83811015610cec57610cc982610ac7565b610cd38882610c7c565b9750610cde83610ada565b925050600181019050610cb8565b5085935050505092915050565b6000610d058286610c4b565b602082019150610d158285610c4b565b602082019150610d258284610c94565b9150819050949350505050565b7f4e487b7100000000000000000000000000000000000000000000000000000000600052601160045260246000fd5b6000610d6c82610727565b9150610d7783610727565b9250828203905081811115610d8f57610d8e610d32565b5b92915050565b7f4e487b7100000000000000000000000000000000000000000000000000000000600052603160045260246000fdfea264697066735822122026d1c9ac1474835573cf465e7e7ee0bd6bbbb8ebac050f7bb7d8d78a3f56796064736f6c63430008180033",
  "linkReferences": {},
  "deployedLinkReferences": {}
}